:020000040800F2
:10000000F806002091010008E5170008DD17000838
:10001000E1170008F9040008F917000800000000C3
:10002000000000000000000000000000ED170008C4
:10003000FD04000800000000E9170008F11700089F
:10004000AB010008AB010008AB010008AB010008E0
:10005000AB010008AB010008AB010008AB010008D0
:10006000AB010008AB010008AB010008AB010008C0
:10007000AB010008AB010008AB010008AB010008B0
:10008000AB010008AB010008AB010008AB010008A0
:10009000AB010008AB010008AB010008AB01000890
:1000A000AB010008AB010008AB010008AB01000880
:1000B000AB010008AB010008AB010008AB01000870
:1000C000AB010008AB010008AB010008AB01000860
:1000D000AB010008AB010008AB010008AB01000850
:1000E000AB010008AB010008AB01000800F002F80A
:1000F00000F03FF80AA090E8000C82448344AAF183
:100100000107DA4501D100F034F8AFF2090EBAE880
:100110000F0013F0010F18BFFB1A43F0010318473B
:100120002419000044190000103A24BF78C878C18F
:10013000FAD8520724BF30C830C144BF04680C60ED
:10014000704700000023002400250026103A28BF35
:1001500078C1FBD8520728BF30C148BF0B60704739
:10016000642900F07D80002070471FB51FBD10B5C9
:1001700010BD00F02AF91146FFF7F7FF01F03EFB32
:1001800000F048F903B4FFF7F2FF03BC00F050F9A8
:100190000948804709480047FEE7FEE7FEE7FEE71B
:1001A000FEE7FEE7FEE7FEE7FEE7FEE70448054957
:1001B000054A064B70470000F5170008ED000008DF
:1001C000F8000020F8060020F8020020F8020020C5
:1001D0000FB41CB5074B06AA7B44694600900598EE
:1001E00000F0DBF80020694600F0EAF81CBC5DF87E
:1001F00014FB0000E50100002DE9F0410E46044625
:10020000002020622046E168884730B3252805D0C9
:10021000D4E901219047206A401CF2E7E1682046BA
:1002200000278847050018D0A5F14100192802D8F9
:1002300020354FF400673246294620462760FFF7F5
:100240008FFF40B1012804D0F61D26F007060836BE
:10025000D8E7361DD6E72846DAE7206ABDE8F08100
:100260002DE9F0410646002410687529314616A58F
:1002700010D0AFF30080002802DA404213A507E057
:1002800031688A0701D512A502E0490704D511A5F6
:10029000012401E0AFF3008000210A2206F12407C7
:1002A00009E0B0FBF2FCB0FBF2F302FB1C003030C3
:1002B00078541846491C0028F3D123462A46304674
:1002C000BDE8F04100F00BB8000000002D00000078
:1002D0002B000000200000007047704770472DE998
:1002E000F0470D4699469246044600F124080168FD
:1002F000880604D5E06921F01001216000E00120AA
:10030000A84201DD471B00E00027A1697A1902EB32
:100310000900081AA0612078C00602D42046AFF375
:100320000080002608E0D4E901211AF80600904771
:10033000206A401C761C20624E45F4DB2078C00603
:100340000AD52046AFF3008006E0D4E90121302031
:100350009047206A401C2062381EA7F10107F4DC98
:1003600007E0D4E9012118F805009047206A401CF5
:100370002062281EA5F10105F3DC2046AFF30080C2
:100380002078000602D50220BDE8F0870120FBE7B7
:1003900001694A1C02610878704700B58FB0CDE949
:1003A00001310021059105497944CDE90310114639
:1003B0006846FFF721FF0FB000BD0000E5FFFFFF1B
:1003C0000A6802F8010B0A607047754600F02CF8C5
:1003D000AE4605006946534620F00700854618B032
:1003E00020B5FFF7E3FEBDE820404FF000064FF0D8
:1003F00000074FF000084FF0000BAC46ACE8C00916
:10040000ACE8C009ACE8C009ACE8C00921F00701BC
:100410008D46704710B50446AFF300802046BDE816
:100420001040FFF7AFBE00000048704710000020EA
:1004300001491820ABBEFEE726000200704700000D
:10044000B0B582B004460020019021688A68D207C6
:100450004FD1886840F00100886040F20800C2F285
:10046000000000684DF68361C4F21B31A0FB01015E
:10047000880C01900198A0B1019801380190019871
:1004800078B1019801380190019850B10198013874
:100490000190019828B10198013801900198002835
:1004A000EAD100F087FB21688968C9071CD105469D
:1004B00003E000BF8068C0071AD100F07BFB411B3E
:1004C00020680329F6D38168C907F3D1A06A40F0F8
:1004D0001000A062E06A40F00100E062002084F8B1
:1004E0002400012002B0B0BD002002B0B0BD00BFAA
:1004F000002002B0B0BD0000FEE700007047000021
:1005000010B581B00022009290F82420012A03D176
:100510000221084601B010BD4B680122062B80F86D
:10052000242017D8D0F800C003EB83035A1F1F23E1
:10053000DCF834E003FA02F40B682EEA040403FA50
:1005400002F22243CCF83420092B03EB430219D9E1
:1005500036E000BFD0F800C00C2B03EB83021DD89F
:10056000233A1F23DCF830E003FA02F40B682EEA8A
:10057000040403FA02F22243CCF83020092B03EBE7
:1005800043021DD8DCF81030072489689440A34347
:1005900091401943CCF81010002130E0413A1F235C
:1005A000DCF82CE003FA02F40B682EEA040403FAE8
:1005B00002F22243CCF82C20092B03EB4302E1D9B1
:1005C000DCF80CE01E3A0724896894402EEA040403
:1005D000914023F001022143102ACCF80C100DD1D8
:1005E00042F20841C4F20101A1F1080294450DD084
:1005F000816A41F020018162012100E00021002296
:1006000080F82420084601B010BD00BF0A6812021D
:1006100030D40A68102B42F400020A602CD140F258
:100620000801C2F2000109684DF68362C4F21B3270
:10063000A1FB0212910C01EB81014900009100998C
:10064000E1B10099013900910099C9B100990139CE
:1006500000910099B1B1009901390091009999B1C7
:10066000009901390091009900294FF00001E8D16B
:10067000C5E700BF0021C2E70021C0E70021BEE7B7
:100680000021BCE70021BAE70021B8E70068C06C90
:1006900070470000B0B5002800F0A8800446806ACA
:1006A00020B121688868C0070BD114E00020E06207
:1006B00084F82400204600F09BF821688868C00771
:1006C00009D0886820F00100886000F073FA216882
:1006D0008A68D20726D1A06AC0063AD4A06A41F23D
:1006E000021290430230A062E069D4E9013240EA8C
:1006F000030C531EB3FA83F35D091346B2F5807FF2
:1007000018BF2B02207D257B01284CEA450030D103
:1007100035B3A56A45F02005A562E56A45F00105F7
:10072000E56226E0054602E08868C007D3D000F005
:1007300041FA401B21680328F6D38868C007F3D02C
:10074000A06A40F01000A062E06A40F00100E062A0
:10075000A06AA06A40F01000A0620120B0BD00BFF6
:10076000D4F818C04EF60005CFF6FF7505EB4C35F2
:100770002B434D68B2F5807F25F4694543EA0503B4
:100780004B608B684FF2FD75CFF6E17503EA050308
:1007900043EA00038B6001D0012A07D122690023BC
:1007A000CFF6F07303EB025201E000BF0022CB6AE8
:1007B00023F470031A43CA62896840F6FE62CFF6DA
:1007C0001F721140814207D10020E062A16A01221C
:1007D00062F30101A162B0BDA06A40F0100020F0F8
:1007E0000200A062E06A40F00100E0620120B0BDBA
:1007F00081B0006842F20041C4F20101884201D098
:1008000001B0704741F21800C4F20200016841F4DF
:1008100000710160006800F400700090009801B061
:100820007047000010B5044690F82400012804BF6A
:10083000022010BD012084F824002046FFF700FEAE
:1008400020B1002184F8241010BD00BF42F2044CF6
:100850002068A16AC4F2010C40F2013291430CF508
:100860007F7201F580719042A16233D0A16A21F4B8
:100870008011A1624168490504D5A16A012363F38F
:100880000D31A162A16A0023C9044FF0000144BFE9
:10089000E16A21F00601E1626FF0020184F8243080
:1008A0000160816801F46021B1F5602F06D19042AA
:1008B0000AD1DCF8001011F4702F05D0816841F4E2
:1008C00080118160002010BD816841F4A001816029
:1008D000002010BDDCF8001011F4702FC6D0A16A02
:1008E00041F48011A162DCF800104905C5D4C9E7C4
:1008F000B0B5044690F82400012804BF0220B0BD22
:100900000121206884F824108168C90709D0816812
:1009100021F00101816000F04DF921688968C90763
:100920000ED1214651F8280F41F2011220EA0202AD
:10093000002042F001020A60002184F82410B0BDBA
:10094000054602E08068C007EBD000F033F9411B98
:1009500020680329F6D38168C907F3D0A06A21462D
:1009600040F01000A06251F82C2F0120E1E70000B8
:10097000B0B5044600F01EF9054640F20000C2F290
:1009800000000078611C18BF044400BF00F012F999
:10099000401BA042FAD3B0BD2DE9F04F82B00E68E3
:1009A000002E00F0038141F20042C4F20102042350
:1009B00040F2004E904208BF03234FF6FF7CC4F282
:1009C000010E009300240123C1F2100C4FF0000A25
:1009D0004FF0000949E000BF012704F00C030F228B
:1009E0009A402BEA020207FA03F34FEA9A051A43E8
:1009F00046F82520D1F804B040F20C455FEACB223E
:100A0000DEF8082054BF22EA080242EA0802C4F2D3
:100A10000105CEF808202A685FEA8B2354BF22EA3A
:100A2000080242EA08022A605FEA8B33DEF80420FB
:100A300054BF22EA080242EA08025FEACB33CEF84A
:100A40000420DEF800204FF0010354BF22EA080220
:100A500042EA0802CEF800200E680AF1010A36FACE
:100A60000AF204F1040400F0A18003FA0AF816EA7D
:100A7000080FF1D04E68664512DC122E56D8DFE81A
:100A800006F0350B45495555555555555555555550
:100A90005555554D510000BFD1F80C9046E000BFB0
:100AA0004FF6FF72C1F2210296420FDC0022C1F222
:100AB000110296421AD00022C1F21202964215D0BB
:100AC0000022C1F22102964210D02FE00022C1F292
:100AD000220296420AD00022C1F23102964205D08B
:100AE0000022C1F23202964220D100BF8A684AB188
:100AF000012A14BFC0F81480C0F810804FF0080914
:100B000014E000BF4FF0040910E000BFCA6802F112
:100B100008090BE04FF0000908E000BFCA6802F1C5
:100B2000040903E0CA6802F10C0900BF2246064628
:100B3000BAF1080F24BF203A043637680F259540D4
:100B400027EA050509FA02F22A433260CA79D20679
:100B50007FF582AF41F21803C4F202031A68AEF5C2
:100B60007E7642F001021A601A6802F001020192D8
:100B7000019A2AF0030256F802B040F60002C4F2CD
:100B80000102904210D040F60042C4F201029042AD
:100B90003FF422AF41F20002C4F20102009F9042F2
:100BA00008BF022719E700BF002716E702B0BDE81B
:100BB000F08F000040F2F000C2F2000000687047C1
:100BC00040F2000040F2F001C2F20000C2F2000167
:100BD00000780A68104408607047000080B542F24F
:100BE0000000C4F20200016841F01001016003201E
:100BF00000F07AF80F2000F005F800F027F8002048
:100C000080BD000070B540F20006C2F2000640F25E
:100C100008013278C2F200014FF47A730968B3FB1D
:100C2000F2F20446B1FBF2F1084600F0D5FB0F2CBE
:100C30004FF0010508D838B94FF0FF3021460022A7
:100C4000002500F025F87460284670BD82B041F29E
:100C50001800C4F202000168022241F001010160A3
:100C6000016801F0010101910199416841F0805151
:100C70004160406800F08050009000980420C4F269
:100C80000100016862F31A61016002B07047000060
:100C900010B54EF60C5CCEF2000CDCF80030C3F35D
:100CA000022E8EF00704042C28BF0424BEF1030397
:100CB0004FF0FF3E0EFA04F438BF0023A1439940E1
:100CC0000EFA03F39A43114300F00F0200F1604360
:100CD0000901043A03F564436244002848BF02F165
:100CE0000C03197010BD00004EF60C51CEF200013D
:100CF0000A684FF6FF031A4060F30A2242F0806050
:100D000040F0FD70086070472DE9F04182B0044664
:100D1000007841F21C06C007C4F202064AD03068CF
:100D200010F0805808D1306840F080503060306852
:100D300000F080500190019847F20007C4F20007CC
:100D40003868C00512D4386840F480703860FFF706
:100D500031FF05463868C00508D4FFF72BFF401B5C
:100D60006428F7D9032002B0BDE8F081706810F460
:100D7000407012D0616801F4407188420DD07068F3
:100D800040F24042C4F24222012320F44071136039
:100D90000023C007136071602AD17068616820F475
:100DA00040700843B8F1000F706003D1306820F044
:100DB000805030602068810707D556F8181CA2685B
:100DC00021F44041114346F8181CC00604D4002009
:100DD00002B0BDE8F08100BF56F8180CE16820F4BD
:100DE0008000084346F8180C002002B0BDE8F081EE
:100DF000FFF7E0FE054641F2883700BF70688007C4
:100E0000CBD4FFF7D7FE401BB8424FF00300F5D913
:100E1000EBE700002DE9F04381B0002800F0858069
:100E200042F20008C4F202080446D8F800000D4659
:100E300000F0070088420CD2D8F8000020F007002C
:100E40002843C8F80000D8F8000000F00700A842C6
:100E50006BD1206841F204098107C4F2020917D559
:100E6000410705D5D9F8001041F4E061C9F8001038
:100E7000010705D5D9F8001041F46051C9F80010F8
:100E8000D9F80010A26821F0F0011143C9F8001050
:100E9000C00741D1D8F8000000F00700A8420CD9E3
:100EA000D8F8000020F007002843C8F80000D8F860
:100EB000000000F00700A84237D12068410707D59D
:100EC000D9F80010E26821F4E0611143C9F800107C
:100ED000000708D5D9F80000216920F4605040EAE5
:100EE000C100C9F80000D9F8002002F00C00082861
:100EF00041F20020C0F27A0050D141F63223C2F311
:100F00008341C0F60003595CD2033BD440F6001085
:100F1000C0F23D00484341E0606802280AD0012841
:100F20002AD159F8041C890308D4012001B0BDE876
:100F3000F08300BF59F8041C8901F6D5D9F80010D8
:100F400021F003010843C9F80000FFF733FE06460D
:100F500041F28837D9F80000616800F00C00B0EB6E
:100F6000810F97D0FFF726FE801BB842F2D90320ED
:100F700001B0BDE8F08300BF59F8041C8907D4D53F
:100F8000DCE700BFD9F8002041F63023C2F340422D
:100F9000C0F600039A5C4843B0FBF2F0D9F80010A9
:100FA00041F61822C1F30311C0F60002515C40F271
:100FB000080220FA01F140F20400C2F200000068C9
:100FC000C2F200021160FFF71DFE002001B0BDE873
:100FD000F083000040F2080041F20401C2F2000078
:100FE000C4F202010068096841F62822C1F3022117
:100FF000C0F60002515CC8407047000040F2080093
:1010000041F20401C2F20000C4F202010068096862
:1010100041F62822C1F3C221C0F60002515CC8404B
:10102000704700002DE9F04182B0002868D00446E6
:10103000007841F20006C007C4F2020625D07068AD
:1010400000F00C0004281BD0706800F00C00082889
:1010500002D17068C00313D46068002800F0688172
:10106000B0F5A02F00F07C81B0F5803F00F07C81CE
:10107000306820F480303060306820F4802076E1E1
:101080003068800301D56068D0B32078800718D518
:10109000706810F00C0F07D0706800F00C00082882
:1010A0006ED17068C0036BD43068800702D52069A8
:1010B000012825D13068616920F0F80040EAC100BC
:1010C0003060207800071FD42078400732D4E569CB
:1010D00095B1706800F00C00082840F08F80012D59
:1010E0000ED07068216A00F480328A4208D1616AA9
:1010F00000F47010884203D1002002B0BDE8F081F6
:10110000012002B0BDE8F081A069002862D0002073
:10111000C4F242200121C0F88014FFF74BFD0546C0
:10112000706A800700F18C80FFF744FD401B0228A5
:10113000F6D92AE1F06910F0805808D1F06940F042
:101140008050F061F06900F080500090009847F204
:101150000007C4F200073868C00529D4386840F495
:1011600080703860FFF726FD054600BF3868C0056F
:101170001ED4FFF71FFD401B6428F7D905E100BF0F
:101180002069002840F20000C4F2422000F0828072
:1011900001210160FFF70EFD054600BF30688007A2
:1011A0003FF588AFFFF706FD401B0228F6D9ECE0BB
:1011B000E068002800F08080052800F09780012872
:1011C00000F09880306A20F001003062306A20F030
:1011D000040092E00020C4F242200021C0F88014F4
:1011E000FFF7E8FC054600BF706A80077FF56CAF2B
:1011F000FFF7E0FC401B0228F6D9C6E00027C4F246
:10120000422700203866FFF7D5FC022D05460BD19A
:101210003068800140F1BE80FFF7CCFC401B022803
:101220004FF00300F4D968E7306880017FF564AFC0
:10123000FFF7C0FC401B02284FF00300F4D95CE725
:1012400040F20800C2F20000006844F6D351C1F237
:101250006201A0FB0101480A019000BF00BF019894
:10126000411E002801913FF42FAF00BF0198411E9D
:10127000002801913FF428AF00BF0198411E0028CB
:1012800001913FF421AF00BF0198411E0028019158
:10129000E4D119E700210160FFF78CFC054600BF8F
:1012A000306880077FF50DAFFFF784FC401B0228F4
:1012B0004FF00300F4D920E7306A20F001003062DB
:1012C000306A20F004003062FFF774FC054641F2FA
:1012D000883700BF306A800720D5FFF76BFC401BC2
:1012E000B8424FF00300F5D907E700BF306A40F07D
:1012F00004003062306A40F001003062FFF75AFCAF
:10130000054641F2883700BF306A800706D4FFF7F0
:1013100051FC401BB842F7D937E000BFB8F1000FCD
:101320007FF4D5AEF06920F08050F061CFE600BFC9
:10133000306820F480303060306820F480203060E5
:10134000FFF738FC054600BF306880037FF59DAE8F
:10135000FFF730FC401B64284FF00300F4D9CCE6C3
:10136000306840F480203060306840F48030306075
:10137000FFF720FC054600BF306880033FF585AECF
:10138000FFF718FC401B6428F6D9032002B0BDE823
:10139000F08100BF206AB0F5803F05D17168A26876
:1013A00021F40031114371607168626A21F4741193
:1013B00011430843706001203866FFF7FBFB0446C9
:1013C000306880013FF598AEFFF7F4FB001B022860
:1013D0004FF00300F4D990E6411E0020B0EB116FEE
:1013E0001CBF012070474EF21002CEF20002516085
:1013F0004EF62351CEF20001F0230B7007219060CE
:1014000011607047002804BF0120704710B50446E2
:1014100090F8410028B9002084F84000204600F0F0
:1014200063F8242084F841002068D4E90212C368DC
:1014300023F40053C360036923F440531A43026149
:10144000D4E904231143C268194341F20C639A435F
:101450001143C1604169A26921F44071114343F60F
:101460000002C4F201029042416103D0FFF7B2FDD5
:1014700002E000BFFFF7C2FD6268192148439100F6
:10148000B0FBF1F048F21F51C5F2EB11A0FB0123B4
:101490005A094FF69C73C0F6FF7302FB0300322318
:1014A00003EB0010A0FB0101F02303EA51132068B5
:1014B00003EB0212C1F3431111448160016921F46D
:1014C00090410161416921F02A014161C16841F403
:1014D0000051C16000202021606484F8411084F82C
:1014E0004210606310BD000070B586B040F6000485
:1014F000C4F20104006804F54051002688420496B5
:1015000002D006B070BD00BF41F21800C4F2020064
:10151000016802AD41F480410160016801F480413D
:1015200001910199016841F00401016000682946B8
:1015300000F00400019001984FF400700290022026
:101540000390032005902046FFF726FA4FF48060B1
:10155000CDE90206204629460496FFF71DFA06B09B
:1015600070BD00002DE9F04381B0044690F84100C1
:10157000202840F0B180884600294FF0010000F09B
:10158000D6801646002A00F0D28000206064212018
:101590001D4684F84100FFF70DFBA684E684A16890
:1015A0000646B1F5805F03D12069002800F09880DD
:1015B00047464FF00008E18C2068002900F0968033
:1015C00005F101090BE000BF47B317F8011B4160AB
:1015D000E18C0139E184E18C002900F08780016809
:1015E0000906F1D4B9F1000F0AD0EDB1FFF7E2FA24
:1015F000801BA84218D8206801680906F6D5E3E7E1
:1016000001680906E0D4016809065CBF01685FEA69
:101610000161D9D401680906F2D5D5E738F8021B73
:1016200000276FF35F21D2E7206850E8030F21689D
:1016300020F4D07041E80302BAB3206850E8030FE9
:10164000216820F4D07041E8030272B3206850E8AA
:10165000030F216820F4D07041E803022AB3206808
:1016600050E8030F216820F4D07041E80302002AFB
:10167000DAD11AE0206850E8050F216820F0010057
:1016800041E80502DAB1206850E8050F216820F032
:10169000010041E8050292B1206850E8050F216879
:1016A00020F0010041E805024AB1206850E8050F2A
:1016B000216820F0010041E80502002ADAD120204B
:1016C00084F8410084F84200002084F840000320A0
:1016D00001B0BDE8F08300BF022001B0BDE8F08397
:1016E0000027E18C206800297FF46AAF0168490671
:1016F00019D4FDB1691C0DD10168490613D40168E4
:1017000049065CBF01685FEA41610CD40168490683
:10171000F2D508E0FFF74EFA801BA8420AD82068ED
:1017200000684006F6D5202084F84100002001B072
:10173000BDE8F083206850E8030F216820F4D070E2
:1017400041E80302002A3ED0206850E8030F2168D8
:1017500020F4D07041E80302AAB3206850E8030FD8
:10176000216820F4D07041E8030262B3206850E899
:10177000030F216820F4D07041E80302002AD9D178
:1017800021E000BF206850E8050F216820F001002B
:1017900041E80502002A3FF492AF206850E8050FA7
:1017A000216820F0010041E80502002A3FF487AFDC
:1017B000206850E8050F216820F0010041E805028B
:1017C000002A3FF47CAF206850E8050F216820F024
:1017D000010041E80502002AD4D170E7FEE70000CD
:1017E000FEE70000FEE700007047000070470000C1
:1017F000FFF7E6B970470000FEE7000094B0FFF77E
:10180000EDF900240120CDE90F44CDE90D440E90FF
:1018100010200F904FF44010022513900AA8CDE934
:101820000B440494CDE902440A95CDE91154FFF725
:10183000F9FB28B1EFF3108072B600BFFEE700BFDE
:101840000F20CDE905054FF48060CDE9080405A817
:1018500002210794FFF7DEFA20B1EFF3108072B691
:10186000FEE700BF022001904FF48040039001A8E2
:10187000FFF74AFA20B1EFF3108072B6FEE700BF1F
:1018800041F21800C4F20200016840F2700641F013
:1018900020010160016842F2004501F020010A9137
:1018A0000A990168C2F2000641F004010160006873
:1018B000C4F2010500F004000A900A98304640F88E
:1018C000085F00244FF46021012704730475C1618F
:1018D000C0E901440761FEF7DDFE28B1EFF3108097
:1018E00072B600BFFEE700BF10200C9406F108049A
:1018F000CDE90A070AA92046FEF702FE20B1EFF360
:10190000108072B6FEE700BF40F2A80005F5A051B6
:10191000C2F200004FF000090C234FF4E13280E8DE
:101920000602C0E90399C0E90539C0F81C90FFF729
:1019300069FD28B1EFF3108072B600BFFEE700BF6B
:101940004CF6CD4A40F2A807CCF6CC4A351D0FF232
:10195000C408C2F2000700BF2046FEF763FF322032
:10196000FFF706F82046FEF791FE31680844306024
:101970002046FEF78BFE3168084430602046FEF7B3
:1019800085FE3168084430602046FEF77FFE3168EE
:10199000084430602046FEF779FE31680844306024
:1019A0002046FEF773FE3168084430602046FEF79B
:1019B0006DFE3168084430602046FEF767FE3168EE
:1019C000084430602046FEF761FE3168084430600C
:1019D0002046FEF75BFE31680844A0FB0A12306027
:1019E000D20828464146FEF7F3FB2046C6F8009091
:1019F000FEF77EFF4FF47A70FEF7BAFF38462946AD
:101A000004224FF0FF33FFF7ADFD4FF47A70FEF77D
:101A1000AFFFA1E725640000000000000000000007
:101A20000102030406070809000000000102030484
:101A3000010202030405060708090A0B0C0D0E0F2C
:101A400010100000681A00080000002010000000BC
:101A500028010008781A000810000020E80600009D
:101A60004401000800000000010000001000000018
:081A70000024F4000000000056
:04000005080000ED02
:00000001FF
