:020000040800F2
:10000000C8060020890100082D1C00087116000890
:10001000291C0008910200089D1D00080000000036
:10002000000000000000000000000000DD1C0008CF
:1000300095020008000000009D1C0008351D000806
:10004000A3010008A3010008A3010008A301000800
:10005000A3010008A3010008A3010008A3010008F0
:10006000A3010008A3010008A3010008A3010008E0
:10007000A3010008A3010008A3010008A3010008D0
:10008000A3010008A3010008A3010008A3010008C0
:10009000A3010008A3010008A3010008A3010008B0
:1000A000A3010008A3010008A3010008A3010008A0
:1000B000A3010008A3010008A3010008A301000890
:1000C000A3010008A3010008A3010008A301000880
:1000D000A3010008A3010008A3010008A301000870
:1000E000A3010008A3010008A301000800F002F822
:1000F00000F03AF80AA090E8000C82448344AAF188
:100100000107DA4501D100F02FF8AFF2090EBAE885
:100110000F0013F0010F18BFFB1A43F0010318473B
:100120000C1F00002C1F0000103A24BF78C878C1B3
:10013000FAD8520724BF30C830C144BF04680C60ED
:10014000704700000023002400250026103A28BF35
:1001500078C1FBD8520728BF30C148BF0B60704739
:100160001FB51FBD10B510BD00F058F81146FFF7C0
:10017000F7FF01F01BFF00F076F803B4FFF7F2FF82
:1001800003BC00F07DF8000009488047094800479B
:10019000FEE7FEE7FEE7FEE7FEE7FEE7FEE7FEE737
:1001A000FEE7FEE704480549054A064B7047000094
:1001B000991D0008ED000008C8000020C8060020B6
:1001C000C8020020C80200204FF0000200B513460C
:1001D00094469646203922BFA0E80C50A0E80C5067
:1001E000B1F12001BFF4F7AF090728BFA0E80C5018
:1001F00048BF0CC05DF804EB890028BF40F8042B11
:1002000008BF704748BF20F8022B11F0804F18BF7D
:1002100000F8012B7047704770477047754600F033
:100220002BF8AE4605006946534620F00700854688
:1002300018B020B5FFF7B6FFBDE820404FF000062C
:100240004FF000074FF000084FF0000BAC46ACE851
:10025000C009ACE8C009ACE8C009ACE8C00921F0AD
:1002600007018D46704710B50446AFF30080204665
:10027000BDE81040FFF781BF004870471000002024
:1002800001491820ABBEFEE72600020070470000BF
:10029000FFE7FEE77047000081B0EFF3108072B611
:1002A0000090FFE7FEE7000080B584B0039000F007
:1002B000ADF90290039801900198013048B1FFE731
:1002C00040F20800C2F20000017801980844019051
:1002D000FFE7FFE700F09AF90299401A0199884276
:1002E00001D2FFE7F6E704B080BD000090B00F90A8
:1002F0000E9100200D900990FFE70E9800680D996F
:10030000C840002800F07F81FFE70D990120884058
:100310000C900E9800680C9908400B900B980C9963
:10032000884240F06C81FFE70E98406805900028F5
:1003300051D0FFE7059801283AD0FFE70598022839
:100340003FD0FFE7059803285FD0FFE70598112805
:1003500032D0FFE70598122838D0FFE70598002132
:10036000C1F21101884236D0FFE705980021C1F2A1
:10037000120188422FD0FFE705980021C1F2210128
:10038000884228D0FFE705980021C1F22201884267
:1003900021D0FFE705980021C1F2310188421AD02F
:1003A000FFE705980021C1F23201884213D02FE007
:1003B0000E98C06809902CE00E98C068043009902F
:1003C00027E00E98C0680830099022E00E98C068B7
:1003D0000C3009901DE00E98806818B9FFE70420E2
:1003E000099011E00E988068012806D1FFE70820E7
:1003F00009900C980F99086105E0082009900C9865
:100400000F994861FFE7FFE703E00020099000E053
:10041000FFE70B98FF2803D8FFE70F98049003E04D
:100420000F9804300490FFE7049808900B98FF2879
:1004300004D8FFE70D988000039006E00D996FF057
:100440001F0000EB81000390FFE7039807900898D6
:100450000068079A0F219140884309999140084309
:10046000089908600E98C079C006002840F1C6803F
:10047000FFE7FFE741F21800C4F20200016841F013
:1004800001010160006800F0010006900698FFE796
:100490000D9820F003000821C4F2010140580A9091
:1004A0000D9800F0030081000F2000FA01F10A9876
:1004B00088430A900F9840F60001C4F20101884277
:1004C00003D1FFE70020029026E00F9840F600419C
:1004D000C4F20101884203D1FFE70120019018E036
:1004E0000F9841F20001C4F20101884203D1FFE7F5
:1004F000022000900AE00F9941F20042C4F201028A
:100500000420914208BF03200090FFE7009801906B
:10051000FFE701980290FFE702980D9901F00301AF
:10052000890000FA01F10A9808430A900A980D9987
:1005300021F003010822C4F2010288500E9880794C
:10054000C006002809D5FFE70B9A40F20841C4F223
:10055000010108681043086008E00B9A40F2084166
:10056000C4F20101086890430860FFE70E988079A3
:100570008006002809D5FFE70B9A40F20C41C4F22F
:10058000010108681043086008E00B9A40F20C4132
:10059000C4F20101086890430860FFE70E98807973
:1005A0008007002809D5FFE70B9A40F20441C4F206
:1005B000010108681043086008E00B9A40F204410A
:1005C000C4F20101086890430860FFE70E98807943
:1005D000C00748B1FFE70B9A40F20041C4F20101A5
:1005E00008681043086008E00B9A40F20041C4F22A
:1005F0000101086890430860FFE7FFE7FFE70D98F7
:1006000001300D9079E610B07047000040F2C40050
:10061000C2F200000068704780B58EB00C900C9854
:1006200020B9FFE701208DF8370043E10C9890F8DE
:100630003D0040B9FFE70C99002081F83C000C9880
:1006400000F040FAFFE70C99242081F83D000C9857
:100650000168086820F0010008600C9801680868CB
:1006600040F4004008600C980168086820F40040DD
:10067000086000F047FC0A900C98406848F2A061BE
:10068000C0F2010188420BD8FFE70A9948F2804284
:10069000C0F21E020020914238BF012009900AE0FA
:1006A0000A9940F60012C0F23D020020914238BF84
:1006B00001200990FFE70998012804D1FFE70120F4
:1006C0008DF83700F6E00A984DF68361C4F21B31CD
:1006D000A0FB0110800C0B900C980068406820F083
:1006E0003F000B9908430C99096848600C98006812
:1006F000006A20F03F0008900C98406848F2A06122
:10070000C0F20101884204D8FFE70B98013007903E
:100710000EE00B984FF49671484344F6D351C1F262
:100720006201A0FB0101012000EB91100790FFE79F
:100730000898079908430C99096808620C980068A2
:10074000C0694CF6FF71884306900C98406848F2E7
:10075000A061C0F2010188421FD8FFE70A98013862
:100760000C9949684900B0FBF1F001306FF31F307C
:10077000032803D8FFE7042005900BE00A9801380E
:100780000C9949684900B0FBF1F001306FF31F305C
:100790000590FFE7059804904CE00C98806868B9D4
:1007A000FFE70A9801380C99496801EB4101B0FB59
:1007B000F1F001306FF31F3003900DE00A9801381B
:1007C0000C99496819225143B0FBF1F00130042122
:1007D00061F31F300390FFE70398000518B9FFE7A6
:1007E0000120029023E00C98806868B9FFE70A981E
:1007F00001380C99496801EB4101B0FBF1F001307F
:100800006FF31F3001900DE00A9801380C99496888
:1008100019225143B0FBF1F00130042161F31F3084
:100820000190FFE7019840F400400290FFE7029832
:100830000490FFE70698049908430C990968C86179
:100840000C980068006820F0C0000C9B1968DA69F9
:100850001B6A1A43104308600C980068806848F2CD
:10086000FF3188430C9A1168D36812691A43104308
:1008700088600C980068C06820F0FF000C9B196825
:100880005A699B691A431043C8600C98016808684C
:1008900040F0010008600C99002008640C9A2021A7
:1008A00082F83D100C9908630C9981F83E008DF890
:1008B0003700FFE79DF837000EB080BD80B588B0E7
:1008C000DDF828C00690ADF816100492ADF80E3091
:1008D000FFF79CFE0290069890F83D00202840F01B
:1008E000E980FFE7069802996A4611600221C0F28A
:1008F00010010122192300F0CFFF20B1FFE70220F1
:100900008DF81F00DAE0FFE7069890F83C00012818
:1009100004D1FFE702208DF81F00CFE006990120E7
:1009200081F83C00FFE7FFE7069800680068C00711
:1009300038B9FFE706980168086840F001000860D0
:10094000FFE706980168086820F4006008600699CF
:10095000212081F83D000699102081F83E0006997B
:1009600000200864049806994862BDF80E000699B4
:1009700048850698408D0699088506990020CFF68F
:10098000FF70C8620698BDF816100A9A029B00F024
:10099000A3FE20B1FFE701208DF81F008EE0FFE7E6
:1009A0000020019006980068406901900698006850
:1009B000806901900198FFE7FFE70698008D002805
:1009C00060D0FFE706980A99029A01F093F880B187
:1009D000FFE70698006C042807D1FFE70698016836
:1009E000086840F400700860FFE701208DF81F00E0
:1009F00064E006980168406A007808610699486AD0
:100A0000013048620699488D013848850699088D5D
:100A10000138088506980068406900F0040101204B
:100A2000B0EB910F16D1FFE70698008D90B1FFE76C
:100A300006980168406A007808610699486A0130A2
:100A400048620699488D013848850699088D013815
:100A50000885FFE706980A99029A00F0C7FE80B160
:100A6000FFE70698006C042807D1FFE706980168A5
:100A7000086840F400700860FFE701208DF81F004F
:100A80001CE09AE706980168086840F40070086066
:100A90000699202081F83D000699002081F83E004B
:100AA000FFE70699002081F83C00FFE700208DF861
:100AB0001F0003E002208DF81F00FFE79DF81F00D4
:100AC00008B080BD80B588B00790002006900590E2
:100AD000049003900798006845F20041C4F20001B9
:100AE00088422CD1FFE7FFE741F21800C4F2020070
:100AF000016841F008010160006800F00800029000
:100B00000298FFE7C0200390122004900320069073
:100B100040F60040C4F2010003A9FFF7E7FBFFE73E
:100B200041F21C00C4F20200016841F400110160AE
:100B3000006800F4001001900198FFE7FFE708B09B
:100B400080BD000040F20800C2F20000027840F2CE
:100B5000C401C2F200010868104408607047000038
:100B600080B542F20001C4F20201086840F01000B2
:100B70000860032000F08CF80F2000F005F800F06A
:100B80003BF8002080BD000080B582B0009040F2AC
:100B90000000C2F20000006840F20801C2F2000149
:100BA0000A784FF47A71B1FBF2F1B0FBF1F000F08A
:100BB00057FD20B1FFE701208DF8070018E00098ED
:100BC0000F280DD8FFE700994FF0FF30002200F00A
:100BD00045F8009840F20C01C2F20001086003E001
:100BE00001208DF8070003E000208DF80700FFE7E3
:100BF0009DF8070002B080BD83B0FFE741F2180006
:100C0000C4F20200016841F001010160006800F0D7
:100C1000010002900298FFE7FFE741F21C00C4F2D6
:100C20000200016841F080510160006800F08050CE
:100C300001900198FFE7FFE70421C4F20101086871
:100C40000090009820F0E0600090009840F0007064
:100C5000009000980860FFE703B0704780B586B049
:100C60008DF81700049103920020029001F098F88B
:100C700002909DF91700019002980499039A00F0E0
:100C8000D7FF0146019801F093F806B080BD00003F
:100C900080B582B00190019801F0ACF802B080BD3F
:100CA00080B584B002900191029820B9FFE701203D
:100CB0008DF80F001BE1019842F20001C4F202011D
:100CC000096801F00701884216D9FFE742F20000E7
:100CD000C4F20200016821F00701019A114301608A
:100CE000006800F007000199884204D0FFE7012066
:100CF0008DF80F00FBE0FFE70298007880070028DE
:100D00002AD5FFE7029800784007002809D5FFE7B9
:100D100041F20401C4F20201086840F4E060086096
:100D2000FFE7029800780007002809D5FFE741F2A5
:100D30000401C4F20201086840F460500860FFE753
:100D400041F20401C4F20201086820F0F000029AA6
:100D5000926810430860FFE702980078C0070028F7
:100D600060D0FFE70298406801280ED1FFE741F20A
:100D70000000C4F2020000688003002804D4FFE7EA
:100D800001208DF80F00B2E021E0029840680228AF
:100D90000ED1FFE741F20000C4F2020000688001BA
:100DA000002804D4FFE701208DF80F009FE00DE03C
:100DB00041F20000C4F2020000688007002804D459
:100DC000FFE701208DF80F0091E0FFE7FFE741F218
:100DD0000401C4F20201086820F00300029A52687C
:100DE00010430860FFF712FC0090FFE741F2040097
:100DF000C4F20200006800F00C0002994968B0EBF0
:100E0000810F0ED0FFE7FFF701FC0099401A41F275
:100E10008931884204D3FFE703208DF80F0066E094
:100E2000E4E7FFE7019842F20001C4F20201096819
:100E300001F00701884216D2FFE742F20000C4F237
:100E40000200016821F00701019A11430160006866
:100E500000F007000199884204D0FFE701208DF8D7
:100E60000F0044E0FFE702980078400700280CD507
:100E7000FFE741F20401C4F20201086820F4E060D7
:100E8000029AD26810430860FFE7029800780007D2
:100E900000280DD5FFE741F20401C4F20201086801
:100EA00020F46050029A126940EAC2000860FFE72D
:100EB00000F03AF841F20401C4F202010968C9B233
:100EC0000A0941F6EC71C0F60001895CC84040F2A5
:100ED0000001C2F20001086040F20C00C2F2000002
:100EE0000068FFF751FE00208DF80F00FFE79DF826
:100EF0000F0004B080BD000040F20000C2F200000C
:100F00000068704780B5FFF7F7FF41F20401C4F2B3
:100F100002010968C1F3022241F6FC71C0F600012A
:100F2000895CC84080BD000086B000200590049018
:100F300003900290019041F20400C4F202000068A4
:100F40000590059800F00C000146009100283FD064
:100F5000FFE70098042804D0FFE70098082806D08F
:100F600037E041F20020C0F27A00019037E00598A6
:100F7000C0F3834142F20400C0F60000405C0290DE
:100F80009DF81600C007C0B1FFE741F20400C4F2AB
:100F900002000068C0F3404142F21400C0F60000B5
:100FA000405C0490029841F20021C0F27A0148436B
:100FB0000499B0FBF1F0039007E0029840F60011AD
:100FC000C0F23D0148430390FFE70398019006E01B
:100FD000FFE741F20020C0F27A000190FFE701989C
:100FE00006B0704780B586B00490049820B9FFE73A
:100FF00001208DF817002EE304980078C007002820
:1010000000F0AE80FFE741F20400C4F20200006885
:1010100000F00C00042813D0FFE741F20400C4F2F2
:101020000200006800F00C0008281BD1FFE741F225
:101030000400C4F202000068C003002812D5FFE7D4
:1010400041F20000C4F2020000688003002808D5C5
:10105000FFE70498406820B9FFE701208DF81700EA
:10106000F9E27CE0FFE704984068B0F5803F09D1E1
:10107000FFE741F20001C4F20201086840F4803049
:10108000086032E00498406868B9FFE741F2000167
:10109000C4F20201086820F480300860086820F477
:1010A0008020086020E004984068B0F5A02F0DD1A2
:1010B000FFE741F20001C4F20201086840F4802019
:1010C0000860086840F4803008600CE041F20001DC
:1010D000C4F20201086820F480300860086820F437
:1010E00080200860FFE7FFE7FFE7FFE7049840681C
:1010F000D0B1FFE7FFF78AFA0390FFE741F2000063
:10110000C4F202000068800300280CD4FFE7FFF758
:101110007DFA0399401A652804D3FFE703208DF870
:10112000170098E2EAE719E0FFF770FA0390FFE78B
:1011300041F20000C4F202000068800300280CD5D0
:10114000FFE7FFF763FA0399401A652804D3FFE726
:1011500003208DF817007EE2EAE7FFE7FFE7FFE7ED
:10116000049800788007002840F18D80FFE741F265
:101170000400C4F20200006810F00C0F13D0FFE767
:1011800041F20400C4F20200006800F00C000828DC
:1011900029D1FFE741F20400C4F202000068C00355
:1011A000002820D4FFE741F20000C4F202000068EA
:1011B0008007002809D5FFE704980069012804D0BA
:1011C000FFE701208DF8170045E241F20001C4F26B
:1011D0000201086820F0F800049A526940EAC2004F
:1011E0000860FFE74EE00498006958B3FFE700216C
:1011F000C4F2422101200860FFF708FA0390FFE7DC
:1012000041F20000C4F202000068800700280CD4FC
:10121000FFE7FFF7FBF90399401A032804D3FFE720
:1012200003208DF8170016E2EAE741F20001C4F24C
:101230000201086820F0F800049A526940EAC200EE
:1012400008601EE00021C4F2422100200860FFF780
:10125000DDF90390FFE741F20000C4F202000068EC
:10126000800700280CD5FFE7FFF7D0F90399401A53
:10127000032804D3FFE703208DF81700EBE1EAE72A
:10128000FFE7FFE7FFE7049800780007002848D54C
:10129000FFE70498806918B3FFE740F28041C4F289
:1012A000422101200860FFF7B1F90390FFE741F206
:1012B0002400C4F202000068800700280CD4FFE775
:1012C000FFF7A4F90399401A032804D3FFE703208A
:1012D0008DF81700BFE1EAE7012000F0E1FC1FE014
:1012E00040F28041C4F2422100200860FFF78EF9ED
:1012F0000390FFE741F22400C4F202000068800777
:1013000000280CD5FFE7FFF781F90399401A03285D
:1013100004D3FFE703208DF817009CE1EAE7FFE71D
:10132000FFE7049800784007002840F1D880FFE7E5
:1013300000208DF8070041F21C00C4F20200006892
:10134000C000002813D4FFE7FFE741F21C00C4F2FD
:101350000200016841F080510160006800F0805097
:1013600000900098FFE701208DF80700FFE747F2A3
:101370000000C4F200000068C005002822D4FFE786
:1013800047F20001C4F20001086840F48070086070
:10139000FFF73CF90390FFE747F20000C4F20000BA
:1013A0000068C00500280CD4FFE7FFF72FF9039968
:1013B000401A652804D3FFE703208DF817004AE19F
:1013C000EAE7FFE7FFE70498C068012809D1FFE7D3
:1013D00041F22001C4F20201086840F001000860F7
:1013E00031E00498C06868B9FFE741F22001C4F217
:1013F0000201086820F001000860086820F004007D
:1014000008601FE00498C06805280DD1FFE741F28D
:101410002001C4F20201086840F004000860086876
:1014200040F0010008600CE041F22001C4F202012A
:10143000086820F001000860086820F004000860D7
:10144000FFE7FFE7FFE7FFE70498C068E0B1FFE7C9
:10145000FFF7DCF80390FFE741F22000C4F202003E
:101460000068800700280ED4FFE7FFF7CFF8039944
:10147000401A41F28931884204D3FFE703208DF8F6
:101480001700E8E0E8E71BE0FFF7C0F80390FFE78C
:1014900041F22000C4F202000068800700280ED547
:1014A000FFE7FFF7B3F80399401A41F28931884208
:1014B00004D3FFE703208DF81700CCE0E8E7FFE74F
:1014C0009DF80700012809D1FFE741F21C01C4F291
:1014D0000201086820F080500860FFE7FFE70498E9
:1014E000C069002800F0B380FFE741F20400C4F2B5
:1014F0000200006800F00C00082800F08280FFE77E
:101500000498C06902285CD1FFE76021C4F242213F
:1015100000200860FFF77AF80390FFE741F200002F
:10152000C4F202000068800100280CD5FFE7FFF735
:101530006DF80399401A032804D3FFE703208DF8C0
:10154000170088E0EAE70498006AB0F5803F0CD104
:10155000FFE741F20401C4F20201086820F4003000
:10156000049A926810430860FFE741F20401C4F254
:101570000201086820F47410049B1A6A5B6A1A431B
:10158000104308606021C4F2422101200860FFF787
:101590003DF80390FFE741F20000C4F2020000684A
:1015A000800100280CD4FFE7FFF730F80399401AB8
:1015B000032804D3FFE703208DF817004BE0EAE788
:1015C0001EE06021C4F2422100200860FFF71EF8EF
:1015D0000390FFE741F20000C4F2020000688001BE
:1015E00000280CD5FFE7FFF711F80399401A0328EC
:1015F00004D3FFE703208DF817002CE0EAE7FFE7AC
:1016000024E00498C069012804D1FFE701208DF887
:10161000170020E041F20400C4F2020000680290CA
:10162000029800F480300499096A884208D1FFE7E3
:10163000029800F470100499496A884204D0FFE7C8
:1016400001208DF8170006E0FFE7FFE7FFE7002025
:101650008DF81700FFE79DF8170006B080BD000069
:1016600080B582B00190019800F03AFB02B080BDD5
:10167000FFE7FEE782B0009000980068406900F440
:1016800080610120B0EB912F1ED1FFE70098016827
:101690006FF480604861009900200863009A20215F
:1016A00082F83D10009981F83E000099086C40F0E6
:1016B00004000864FFE70099002081F83C00FFE780
:1016C00001208DF8070003E000208DF80700FFE7F8
:1016D0009DF8070002B0704780B588B00690ADF85D
:1016E0001610049203930698C06A02900298082884
:1016F00009D0FFE70298012805D0FFE7029810F50E
:10170000803F07D1FFE706980168086840F48070C1
:1017100008600DE00698006B122807D1FFE70698D5
:101720000168086840F48070086000E0FFE7FFE7A8
:101730000698049B03996A4611604FF0011100223C
:1017400000F0AAF880B1FFE7069800680068C005BD
:10175000002805D5FFE706994FF400700864FFE7FD
:1017600003208DF81F003CE006980069B0F5804F1B
:1017700008D1FFE7BDF8160000F0FE0006990968E1
:1017800008611CE0BDF8160000F44070C009F0309C
:101790000699096808610698049A039B0821C0F21B
:1017A000010100F0FDF820B1FFE701208DF81F00D6
:1017B00017E09DF81600069909680861FFE706988A
:1017C000049A039B0221C0F2010100F0E9F820B164
:1017D000FFE701208DF81F0003E000208DF81F00B7
:1017E000FFE79DF81F0008B080BD000080B584B001
:1017F000029001910092FFE702980068406900F0B2
:1018000004010020B0EB910F3ED1FFE70298FFF7F3
:1018100031FF20B1FFE701208DF80F0038E001987B
:10182000013080B3FFE7FEF7F1FE0099401A0199FD
:10183000884203D8FFE7019820BBFFE702980068C1
:10184000406900F004010020B0EB910F19D1FFE7CF
:10185000029900200863029A202182F83D10029923
:1018600081F83E000299086C40F020000864FFE710
:101870000299002081F83C00FFE701208DF80F005D
:1018800006E0FFE7FFE7B7E700208DF80F00FFE76E
:101890009DF80F0004B080BD80B588B0DDF828C089
:1018A000069005918DF813200393FFE79DF816002D
:1018B00001280CD1FFE7069800684069BDF81410B4
:1018C0000840401AB0FA80F0400902900BE00698F8
:1018D00000688069BDF814100840401AB0FA80F022
:1018E00040090290FFE702989DF8131088424FD1FB
:1018F000FFE703980130002849D0FFE7FEF786FE96
:101900000A99401A0399884203D8FFE70398E8BB75
:10191000FFE79DF8160001280CD1FFE70698006844
:101920004069BDF814100840401AB0FA80F0400930
:1019300001900BE0069800688069BDF8141008401B
:10194000401AB0FA80F040090190FFE701989DF835
:101950001310884219D1FFE7069900200863069A00
:10196000202182F83D10069981F83E000699086C06
:1019700040F020000864FFE70699002081F83C0051
:10198000FFE701208DF81F0006E0FFE7FFE78DE786
:1019900000208DF81F00FFE79DF81F0008B080BDF4
:1019A00080B588B00690059104920393FFE79DF8F7
:1019B000160001280CD1FFE7069800684069BDF8C1
:1019C00014100840401AB0FA80F0400902900BE071
:1019D000069800688069BDF814100840401AB0FAF3
:1019E00080F040090290FFE7029800287AD1FFE7D3
:1019F00006980068406900F480610120B0EB912FE7
:101A000024D1FFE706980168086840F40070086078
:101A1000069801686FF480604861069900200863A9
:101A2000069A202182F83D10069981F83E00069919
:101A3000086C40F004000864FFE70699002081F874
:101A40003C00FFE701208DF81F004FE004980130B3
:101A5000002846D0FFE7FEF7D9FD0399401A049904
:101A6000884203D8FFE70498D0BBFFE79DF8160033
:101A700001280CD1FFE7069800684069BDF81410F2
:101A80000840401AB0FA80F0400901900BE0069837
:101A900000688069BDF814100840401AB0FA80F060
:101AA00040090190FFE70198C8B9FFE706990020B7
:101AB0000863069A202182F83D10069981F83E00BD
:101AC0000699086C40F020000864FFE706990020A2
:101AD00081F83C00FFE701208DF81F0006E0FFE7DA
:101AE000FFE764E700208DF81F00FFE79DF81F0067
:101AF00008B080BD80B584B0029001910092FFE7EC
:101B0000029800684069C1B20020B0EBD11F3DD1FE
:101B1000FFE70298FFF7AEFD20B1FFE701208DF847
:101B20000F0037E00198013078B3FFE7FEF76EFD54
:101B30000099401A0199884203D8FFE7019818BB21
:101B4000FFE7029800684069C1B20020B0EBD11FE6
:101B500019D1FFE7029900200863029A202182F838
:101B60003D10029981F83E000299086C40F0200077
:101B70000864FFE70299002081F83C00FFE701209C
:101B80008DF80F0006E0FFE7FFE7B9E700208DF8CA
:101B90000F00FFE79DF80F0004B080BD82B0FFE7A3
:101BA00041F21800C4F20200016841F00401016032
:101BB000006800F0040001900198FFE7FFE741F2A0
:101BC0001800C4F20200016841F0080101600068D9
:101BD00000F0080000900098FFE702B07047000096
:101BE00080B582B040F27000C2F20000019045F270
:101BF0000041C4F20001016048F2A061C0F201019D
:101C0000416000218160C1604FF480420261416106
:101C10008161C1610162FEF7FFFC18B1FFE7FEF7C9
:101C20003BFBFFE702B080BDFFE7FEE7FFE7FEE713
:101C300088B0079006910592079800F0070004907D
:101C40000498C0F10700052803D3FFE704200190A2
:101C500004E00498C0F107000190FFE701980390A9
:101C600004980430062803D8FFE70020009003E022
:101C7000049803380090FFE70098029006980399B3
:101C8000012202FA01F101390840029B98400599AE
:101C90009A40013A1140084308B07047704700006D
:101CA00082B00190019840F20001C2F2000109687F
:101CB000C90844F6D352C1F26202A1FB022189098C
:101CC00048430090FFE700BFFFE70098411E0091E6
:101CD0000028F8D1FFE702B070470000704700000D
:101CE00080B582B0009000980138B0F1807F03D3B6
:101CF000FFE70120019019E0009801384EF214012D
:101D0000CEF2000108604FF0FF300F2100F050F8D4
:101D10004EF21801CEF20001002008604EF21002CF
:101D2000CEF20002072111600190FFE7019802B096
:101D300080BD000080B5FEF705FF80BD80B590B086
:101D400006A800902821FEF73FFA0098002105918F
:101D500004910391029101910222069201220A92BA
:101D600010220B920D91FFF73DF918B1FFE7FEF736
:101D700093FAFFE70F200190002102910391049153
:101D8000059101A8FEF78CFF18B1FFE7FEF784FA72
:101D9000FFE710B080BD000070470000FFE7FEE7DE
:101DA0004EF60C50CEF200000068C0F302207047DF
:101DB00082B08DF8070000919DF9070000280AD431
:101DC000FFE7009800019DF907104EF20042CEF2A5
:101DD000000288540BE0009800019DF8071001F004
:101DE0000F014EF61452CEF200028854FFE702B003
:101DF0007047000083B00290029800F00700009046
:101E00004EF60C51CEF200010868019001984FF691
:101E1000FF02104001900198009A40EA022000223F
:101E2000C0F2FA52104301900198086003B0704765
:101E300080B584B03220FEF737FA3020019000F0F0
:101E400037F80520FEF730FA019800F031F801204C
:101E50000390FEF729FA019800F02AF80A20029070
:101E6000FEF722FA202000F023F80298FEF71CFA71
:101E7000242000F01DF80398FEF716FA082000F061
:101E800017F80398FEF710FA039800F011F803987A
:101E9000FEF70AFA0398FEF707FA062000F008F8A2
:101EA0000398FEF701FA0C2000F002F804B080BDA0
:101EB00080B584B08DF80F009DF80F0000F0F000A1
:101EC0008DF80E009DF80F0000018DF80D009DF8B3
:101ED0000E0040F00C008DF809009DF80E0040F057
:101EE00008008DF80A009DF80D0040F00C008DF8F8
:101EF0000B009DF80D0040F008008DF80C006946BD
:101F00006420086040F27000C2F200004E210DF122
:101F100009020423FEF7D2FC04B080BD80B584B072
:101F20008DF80F009DF80F0000F0F0008DF80E0006
:101F30009DF80F0000018DF80D009DF80E0040F097
:101F40000D008DF809009DF80E0040F009008DF895
:101F50000A009DF80D0040F00D008DF80B009DF873
:101F60000D0040F009008DF80C00694664200860FF
:101F700040F27000C2F200004E210DF1090204236C
:101F8000FEF79CFC04B080BD80B582B00190FFE7F5
:101F90000198007838B1FFE70198411C0191007861
:101FA000FFF7BCFFF4E702B080BD000080B582B04F
:101FB00000200190FEF7D4FDFFF7C0FEFFF7EEFD15
:101FC000FFF70EFEFFF734FFFFE740F20400C2F216
:101FD00000000068FFF7D8FF9620FEF765F942F28F
:101FE0001600C0F60000FFF7CFFFEEE7000000008C
:101FF00000000000010203040607080900000000B9
:102000000102030402030405060708090A0B0C0D6C
:102010000E0F101001022048415A5520004841502F
:1020200050592032302D313000000000502000087F
:1020300000000020100000002801000860200008B7
:1020400010000020B8060000440100080000000055
:102050000024F4001D200008010000001000000012
:04000005080000ED02
:00000001FF
