:020000040800F2
:100000007006002089010008950A0008910A00087E
:10001000930A00088B020008F10A000800000000A3
:10002000000000000000000000000000990A000825
:100030008D02000800000000970A00089B0A0008D3
:10004000A3010008A3010008A3010008A301000800
:10005000A3010008A3010008A3010008A3010008F0
:10006000A3010008A3010008A3010008A3010008E0
:10007000A3010008A3010008A3010008A3010008D0
:10008000A3010008A3010008A3010008A3010008C0
:10009000A3010008A3010008A3010008A3010008B0
:1000A000A3010008A3010008A3010008A3010008A0
:1000B000A3010008A3010008A3010008A301000890
:1000C000A3010008A3010008A3010008A301000880
:1000D000A3010008A3010008A3010008A301000870
:1000E000A3010008A3010008A301000800F002F822
:1000F00000F03AF80AA090E8000C82448344AAF188
:100100000107DA4501D100F02FF8AFF2090EBAE885
:100110000F0013F0010F18BFFB1A43F0010318473B
:100120008C0A0000AC0A0000103A24BF78C878C1DD
:10013000FAD8520724BF30C830C144BF04680C60ED
:10014000704700000023002400250026103A28BF35
:1001500078C1FBD8520728BF30C148BF0B60704739
:100160001FB51FBD10B510BD00F058F81146FFF7C0
:10017000F7FF00F0CFFC00F076F803B4FFF7F2FFD2
:1001800003BC00F07BF8000009488047094800479D
:10019000FEE7FEE7FEE7FEE7FEE7FEE7FEE7FEE737
:1001A000FEE7FEE704480549054A064B7047000094
:1001B000EF0A0008ED000008700000207006002023
:1001C00070020020700200204FF0000200B51346BC
:1001D00094469646203922BFA0E80C50A0E80C5067
:1001E000B1F12001BFF4F7AF090728BFA0E80C5018
:1001F00048BF0CC05DF804EB890028BF40F8042B11
:1002000008BF704748BF20F8022B11F0804F18BF7D
:1002100000F8012B7047704770477047754600F033
:1002200029F8AE4605006946534620F0070085468A
:1002300018B020B5FFF7B6FFBDE820404FF000062C
:100240004FF000074FF000084FF0000B21F00701BE
:10025000AC46ACE8C009ACE8C009ACE8C009ACE801
:10026000C0098D4670470446AFF300802046FFF773
:1002700084FF00000048704710000020014918204A
:10028000ABBEFEE7260002007047FEE770470000A5
:1002900070B5044600F008F90546601C02D0044819
:1002A0000078044400F000F9401BA042FAD370BD6E
:1002B000000000202DE9F84FDFF8B0910024A9F1EB
:1002C000040B23460F2709F1040AABF1040EC6E024
:1002D0000125A5402A40AA4276D1DFF894C14E6894
:1002E000A6EB0C0866452BD00DDC032E34D005DCC4
:1002F00036B3012E19D0022E2FD11BE0112E16D0AD
:10030000122E2AD119E0B8F5881F19D006DCB8F5ED
:10031000803F15D0B8F5801F1FD111E0B8F5001F40
:100320000ED0B8F5041F18D10AE0CB6815E0CB68F1
:100330001B1D12E0CB6808330FE0CB680C330CE0D8
:100340008B682BB1012B4FF0080303D0456104E00B
:10035000042302E0056100E00023FF2A01D80646DD
:1003600001E000F104064FEA840501D9A5F120055A
:10037000D6F8008007FA05FC28EA0C0803FA05F510
:1003800048EA0508C6F800804D68ED0066D5394D8D
:10039000AE6946F00106AE61AD6924F0030605F0D2
:1003A00001050095344D06EB050CDCF80850A60756
:1003B000360F07FA06F825EA0805DFF8C080404541
:1003C00003D14FF0000817E048E0DFF8B480404563
:1003D00002D14FF001080FE0DFF8A880404502D1BC
:1003E0004FF0020808E0DFF8A080404502D14FF04E
:1003F000030801E04FF0040808FA06F848EA050887
:10040000CCF808804D68D9F80060ED02002D4D460B
:1004100001DA164300E096432E604D68DAF800607A
:10042000AD02002D554601DA164300E096432E60DA
:100430004D68DBF80060AD03002D5D4601DA164320
:1004400000E096432E604D68DEF80060ED03002D5D
:10045000754601DA164300E096432E60641C0A6874
:1004600032FA04F57FF434AFBDE8F88F0804014098
:10047000000011100010024000000140000801407F
:10048000000C01400010014000140140C26821EA44
:1004900002030A4043EA0241016170470AB1016167
:1004A00070470904FBE700000148806870470000BE
:1004B0000000002002488168027811448160704782
:1004C00000000020074810B5016841F010010160EC
:1004D000032000F067F80F2000F006F800F024F881
:1004E000002010BD0020024070B50D4D04464FF4B1
:1004F0007A712878B1FBF0F00A490968B1FBF0F095
:1005000000F0B2FA48B9102C07D200222146501E42
:1005100000F028F800206C6070BD012070BD000064
:10052000000000200C0000200C4808B5816941F053
:1005300001018161816901F001010091C16941F00E
:100540008051C161C06900F080500090044841684A
:1005500021F0E06141F00071416008BD00100240EF
:1005600000000140F0B40E4B1B680C46C3F302239D
:10057000C3F10705042D00D90425191D072901D24F
:10058000002300E0DB1E012606FA05F1491E21408A
:1005900099409E40761E16403143F0BC00F0AABA46
:1005A0000CED00E0064900F0070208684FF6FF0373
:1005B000184040EA0220034A1043086070470000D8
:1005C0000CED00E00000FA052DE9F0470F460500AC
:1005D00061D0434E306800F00700B84209D230685D
:1005E00020F0070038433060306800F00700B84260
:1005F00051D128683B4C810712D5400703D560686C
:1006000040F4E06060602878000703D5606840F43B
:10061000605060606068A96820F0F0000843606086
:100620002878C00728D06868012810D021680228DF
:1006300010D0890700292EDA616821F003010143F7
:100640006160FFF731FF804641F288390DE0216893
:100650008903EFE78901EDE7FFF726FFA0EB08012B
:10066000494502D90320BDE8F0876068696800F059
:100670000C00B0EB810FEFD1306800F00700B842FA
:100680000BD9306820F0070038433060306800F044
:100690000700B84201D00120E5E72878400705D5DA
:1006A0006068E96820F4E06008436060287800072B
:1006B00006D56068296920F4605040EAC100606096
:1006C00000F018F86168084AC1F30311515CC84092
:1006D0000649086006480068FFF706FF0020C2E7E9
:1006E00000200240001002409A0B00080C0000207D
:1006F000040000200E4A51680E4801F00C03042B40
:1007000011D0082B0FD10C48C1F38343C903C05C3F
:100710000AD55168084AC1F34041921E515C054A0E
:100720005043B0FBF1F07047044948437047000064
:100730000010024000127A008A0B000800093D00F8
:100740002DE9F84F040070D02078C24DC00749D081
:100750006868C0F38100012807D06868C0F3810091
:10076000022809D16868C00306D52868800339D5F6
:1007700060680028E7D035E06068B0F5803F0BD0B6
:1007800010B1B0F5A02F11D0286820F48030286077
:10079000286820F4802002E0286840F48030286037
:1007A000606890B1FFF780FE06460AE0286840F4D2
:1007B00080202860F0E700BFFFF776FE801B6428EA
:1007C00074D828688003F7D50CE0FFF76DFE064665
:1007D00005E000BFFFF768FE801B6428F0D828689A
:1007E0008003F7D420789C4E80074FF001094FF02A
:1007F000000839D5686810F00C0F07D06868C0F39E
:100800008100022809D16868C00306D428688007DF
:1008100014D52069012808D110E02069B0B1C6F8CC
:100820000090FFF741FE074605E00EE1FFF73CFEB2
:10083000C01B0228C4D828688007F7D528686169DA
:1008400020F0F80040EAC10028600DE0C6F8008002
:10085000FFF72AFE074604E0FFF726FEC01B02282A
:10086000AED828688007F7D4207800072ED57B48BB
:10087000A169E1B1C0F80090FFF716FE074604E059
:10088000FFF712FEC01B022810D8686A8007F7D550
:1008900073484FF4FA510068B0FBF1F0009000BFCC
:1008A0000098411E00910028F9D10FE082E0C0F8C5
:1008B0000080FFF7F9FD074605E000BFFFF7F4FDF4
:1008C000C01B022876D8686A8007F7D420784007D2
:1008D00061D5E8690027C00008D4E86940F080507D
:1008E000E861E869012700F0805000905D480168E8
:1008F000C90513D40168834641F480710160FFF794
:10090000D3FD824606E000BFFFF7CEFDA0EB0A0054
:1009100064284FD8DBF80000C005F5D5E068012851
:100920000AD008B1052813D0286A20F001002862F7
:10093000286A20F0040002E0286A40F001002862E2
:10094000E06841F2883B98B1FFF7AEFD82460BE0CC
:10095000286A40F004002862EEE700BFFFF7A4FD1C
:10096000A0EB0A0159455CD8286A8007F6D50CE04F
:10097000FFF79AFD824605E0FFF796FDA0EB0A011E
:1009800059454ED8286A8007F6D4012F03D1E8696B
:1009900020F08050E861E06990B36968C1F381019B
:1009A000022945D00228C6F8608004D0FFF77CFDFC
:1009B000044639E035E0FFF777FD074605E000BF64
:1009C000FFF772FDC01B02282BD828688001F7D4DE
:1009D000206AB0F5803F05D16868A16820F4003036
:1009E00008436860D4E908010843696821F4741178
:1009F00008436860C6F86090FFF756FD044606E0BD
:100A000025E000BFFFF750FD001B022809D8286829
:100A10008001F7D51BE000BFFFF746FD001B022851
:100A200002D90320BDE8F88F28688001F4D40EE0D5
:100A30000128F7D06868226A00F48031914204D11D
:100A4000616A00F47010884201D00120EAE70020BA
:100A5000E8E70000001002400000424280044242E9
:100A60000C0000200070004010B5401EB0F1807FE7
:100A700001D3012010BD4FF0E02460610F21601709
:100A800000F038F80020A06107202061002010BD90
:100A9000FEE7FEE7FEE770477047FFF70BBD10B5B6
:100AA00090B028216846FFF78FFB14210AA8FFF7B2
:100AB0008BFB022000900120049010200024059060
:100AC00007946846FFF73CFE08B172B6FEE70F20B8
:100AD000CDE90A040C940D9400210AA80E94FFF7A6
:100AE00073FD002801D072B6FEE710B010BD70474C
:100AF000FEE700000907090E002801DB034A02E0B7
:100B0000034A00F00F0081547047000000E400E049
:100B100014ED00E086B0FFF7D5FCFFF7C0FF00251D
:100B200017480095019502950395816941F01001E0
:100B30008161816901F010010491816941F0040132
:100B4000816180690F4C00F004004FF4005604905E
:100B5000002231462046FFF7A1FC01200096CDE996
:100B600001050220039069462046FFF7A3FB6D1E96
:100B70000D212046FFF78AFC2846FFF789FBF7E79F
:100B800000100240001001400102020304050607A4
:100B900008090A0B0C0D0E0F1010000000000000D9
:100BA000000001020304060708090000CC0B00083E
:100BB000000000201000000028010008DC0B0008E5
:100BC0001000002060060000440100080100000041
:0C0BD00010000000000000000024F400F1
:04000005080000ED02
:00000001FF
